{
  "contractName": "LightToken",
  "abi": [
    {
      "inputs": [],
      "name": "totalSupply",
      "outputs": [
        {
          "internalType": "uint256",
          "name": "",
          "type": "uint256"
        }
      ],
      "stateMutability": "view",
      "type": "function",
      "constant": true
    },
    {
      "inputs": [],
      "name": "Light",
      "outputs": [],
      "stateMutability": "nonpayable",
      "type": "function"
    }
  ],
  "bytecode": "0x608060405234801561001057600080fd5b5060d18061001f6000396000f3fe6080604052348015600f57600080fd5b506004361060325760003560e01c80630cf7486c14603757806318160ddd14603f575b600080fd5b603d6059565b005b60456065565b604051605091906082565b60405180910390f35b620f4240600081905550565b60005481565b6000819050919050565b607c81606b565b82525050565b6000602082019050609560008301846075565b9291505056fea2646970667358221220faa444f71b30a5eda6c6691dbe0b6c5b928c2d01fe42e2573ced6bee2f37665a64736f6c63430008090033",
  "immutableReferences": {},
  "source": "pragma solidity ^0.8.4;\r\n\r\ncontract LightToken {\r\n    //constructor \r\n    // set the total number of tokens\r\n    //read the total number of tokens\r\n\r\n    uint256 public totalSupply; //how many token exists\r\n\r\n    function Light() public{\r\n        totalSupply = 1000000;\r\n    }\r\n    \r\n}",
  "sourcePath": "D:\\Code\\blockchain\\Coin Project\\contracts\\LightToken.sol",
  "compiler": {
    "name": "solc",
    "version": "0.8.9+commit.e5eed63a.Emscripten.clang"
  },
  "schemaVersion": "3.4.3",
  "updatedAt": "2021-12-16T13:02:08.713Z",
  "networkType": "ethereum",
  "devdoc": {
    "kind": "dev",
    "methods": {},
    "version": 1
  },
  "userdoc": {
    "kind": "user",
    "methods": {},
    "version": 1
  }
}